:100000000C945C000C946E000C946E000C946E00CA
:100010000C946E000C946E000C946E000C946E00A8
:100020000C946E000C946E000C946E000C946E0098
:100030000C946E000C946E000C946E000C946E0088
:100040000C94BC000C946E000C946E000C946E002A
:100050000C946E000C946E000C946E000C946E0068
:100060000C946E000C946E00000000080002010069
:100070000003040700000000000000000000000072
:10008000250028002B0000000000240027002A0083
:10009000040404040404040402020202020203032E
:1000A0000303030301020408102040800102040836
:1000B000102001020408102011241FBECFEFD8E049
:1000C000DEBFCDBF21E0A0E0B1E001C01D92A930AC
:1000D000B207E1F70E9406010C94F6010C940000AF
:1000E00090E0FC01E859FF4F2491FC01EC55FF4FD3
:1000F0003491FC01E057FF4FE491EE23C9F0222335
:1001000039F0233001F1A8F4213019F1223029F11E
:10011000F0E0EE0FFF1FE458FF4FA591B4918FB7A9
:10012000F894EC91611126C030953E233C938FBF2B
:1001300008952730A9F02830C9F0243049F780917C
:1001400080008F7D03C0809180008F778093800036
:10015000DFCF84B58F7784BDDBCF84B58F7DFBCFB8
:100160008091B0008F778093B000D2CF8091B000A3
:100170008F7DF9CF3E2BDACF1F920F920FB60F92E1
:1001800011242F933F938F939F93AF93BF938091AD
:10019000050190910601A0910701B09108013091ED
:1001A000040123E0230F2D3758F50196A11DB11D41
:1001B000209304018093050190930601A093070109
:1001C000B09308018091000190910101A09102017A
:1001D000B09103010196A11DB11D80930001909380
:1001E0000101A0930201B0930301BF91AF919F91D0
:1001F0008F913F912F910F900FBE0F901F901895E8
:1002000026E8230F0296A11DB11DD2CF789484B5A4
:10021000826084BD84B5816084BD85B5826085BD02
:1002200085B5816085BD80916E00816080936E0090
:100230001092810080918100826080938100809182
:100240008100816080938100809180008160809333
:1002500080008091B10084608093B1008091B000F3
:1002600081608093B00080917A00846080937A00EE
:1002700080917A00826080937A0080917A00816018
:1002800080937A0080917A00806880937A0010923F
:10029000C100E0EBF0E02491ECE9F0E084918823E8
:1002A00099F090E0880F991FFC01EA57FF4FA59144
:1002B000B491FC01E458FF4F859194918FB7F89465
:1002C000EC91E22BEC938FBF10E4C0E0D0E01093F0
:1002D0007C0080917A00806480937A0080917A001B
:1002E00086FDFCCF8091780060917900762F682F91
:1002F000072E000C880B990B0E94920120E030E041
:100300004AEF53E40E94CD0160E018160CF061E062
:100310008CE00E9470002097D1F20E940000D7CF9D
:10032000E89409C097FB3EF490958095709561958F
:100330007F4F8F4F9F4F9923A9F0F92F96E9BB2745
:100340009395F695879577956795B795F111F8CFC1
:10035000FAF4BB0F11F460FF1BC06F5F7F4F8F4F2C
:100360009F4F16C0882311F096E911C0772321F022
:100370009EE8872F762F05C0662371F096E8862FBA
:1003800070E060E02AF09A95660F771F881FDAF711
:10039000880F9695879597F908950E94D20108F4E1
:1003A0008FEF0895990F0008550FAA0BE0E8FEEFB4
:1003B00016161706E807F907C0F012161306E40729
:1003C000F50798F0621B730B840B950B39F40A2622
:1003D00061F0232B242B252B21F408950A2609F400
:1003E000A140A6958FEF811D811D0895F894FFCF40
:00000001FF
